:100000000C9434000C943E000C943E000C943E0082
:100010000C943E000C943E000C943E000C943E0068
:100020000C943E000C943E000C943E000C943E0058
:100030000C943E000C943E000C943E000C943E0048
:100040000C943E000C943E000C943E000C943E0038
:100050000C943E000C943E000C943E000C943E0028
:100060000C943E000C943E0011241FBECFEFD8E04C
:10007000DEBFCDBF0E9440000C945E000C940000D7
:100080008091C100877E8093C1008AB18FEF8AB9C9
:100090001BB81BB82FEF31EE94E021503040904058
:1000A000E1F700C000008BB92FEF31EE94E0215052
:1000B00030409040E1F700C00000EBCFF894FFCF54
:00000001FF
