:100000000C9434000C943E000C943E000C943E0082
:100010000C943E000C943E000C943E000C943E0068
:100020000C943E000C943E000C943E000C943E0058
:100030000C943E000C943E000C943E000C943E0048
:100040000C943E000C943E000C943E000C943E0038
:100050000C943E000C943E000C943E000C943E0028
:100060000C943E000C943E0011241FBECFEFD8E04C
:10007000DEBFCDBF0E9440000C9472000C940000C3
:100080008091C100877E8093C1008AB18FEF8AB9C9
:1000900081E08BB981E090E011C0220F2BB92FE7EE
:1000A00036E244E0215030404040E1F700C000001B
:1000B0003BB121E03038A1F0822F90E02BB1892BA9
:1000C00061F726952BB92FE736E244E02150304006
:1000D0004040E1F700C000003BB121E0313061F366
:0800E00020E0EACFF894FFCF05
:00000001FF
