:100000000C9434000C9451000C9451000C94510049
:100010000C9451000C9451000C9451000C9451001C
:100020000C9451000C9451000C9451000C9451000C
:100030000C9451000C9451000C9451000C945100FC
:100040000C9451000C9451000C9451000C945100EC
:100050000C9451000C9451000C9451000C945100DC
:100060000C9451000C94510011241FBECFEFD8E026
:10007000DEBFCDBF11E0A0E0B1E0ECEDF9E002C0E1
:1000800005900D92AE35B107D9F721E0AEE5B1E0AC
:1000900001C01D92A237B207E1F70E94AC010C9497
:1000A000EC040C9400009091C00095FFFCCF80936D
:1000B000C60080E090E008958091C00087FFFCCFEB
:1000C0008091C60090E0089587E690E09093C50087
:1000D0008093C4001092C00088E18093C10086E044
:1000E0008093C2000895CF93E0E0F1E020E004C0E7
:1000F0002F5F32962A31D9F031813913F9CF30810F
:100100003813F6CFC1E4C20F233091F41F928F93BE
:100110001F929F9386E391E09F938F930E94DC014F
:100120000F900F900F900F900F900F9001C0CFE3A2
:100130008C2FCF9108952D981C992CC020E030E091
:1001400080E02F5F3F4F24313105B1F09FEF40E752
:1001500052E0915040405040E1F700C000001C9B2D
:10016000F0CF2D989FEF20E732E0915020403040B3
:10017000E1F700C0000008952D9A4FEF50E782E0AC
:10018000415050408040E1F700C0000081E01C9BDE
:10019000D8CFE7CF80E0E5CFC0E0D0E080E090E0CE
:1001A0006FEF70E722E0615070402040E1F700C03F
:1001B00000001C9B31C001968C33910509F07DC075
:1001C0002D9AE0E0F1E080E005C08F5F32968A3141
:1001D00009F4A6C09181C913F8CF9081D913F5CF46
:1001E00091E4F92EF80E833009F4A5C0C1119DC029
:1001F0007FEF80E792E0715080409040E1F700C0CF
:10020000000083B1C82FC07184FF05C00DE310E06A
:10021000D0E0C0E045C0D0E02D984C2F1C991BC009
:1002200020E080E090E001968431910509F45CC003
:100230003FEF60E772E0315060407040E1F700C08E
:1002400000001C9BF0CF822F220F990B01C0880F5A
:100250004A95EAF7D82B2D988FEF90E722E081504E
:1002600090402040E1F700C00000CF5FC63009F0A9
:1002700049C02D988FE390E00E94F2013FEF40E7E4
:1002800062E0315040406040E1F700C0000083B1BF
:10029000C82FC07184FFBFCF01E010E0D0E0C0E004
:1002A0006FEF70E782E0615070408040E1F700C07E
:1002B0000000C80101961C9BAFCF8837910509F05B
:1002C0006FCF2D9880E290E00E94F2012FEF30E78F
:1002D00042E0215030404040E1F700C0000081E0A2
:1002E00090E01C995DCF98CF2D9A3FEF60E772E0C8
:1002F000315060407040E1F700C0000021E01C9BDD
:1003000092CFA1CF2FEF30E742E021503040404064
:10031000E1F700C000001C9B7FCF01E010E0C0CFE0
:100320008FE3F82EC11509F463CF8F2DFF0C990BC5
:100330000E94F2015DCF1F92DF931F92CF9386E35D
:1003400091E09F938F930E94DC010F900F900F908C
:100350000F900F900F904ACF87E690E09093C500E2
:100360008093C4001092C00088E18093C10086E0B1
:100370008093C200EEE5F1E083E590E0918780870D
:100380008CE590E09387828783E0838315861486CB
:10039000ACE6B1E01596FC93EE9314971396FC939C
:1003A000EE931297ED93FC9385E491E00E94F9019E
:1003B0002C9A259A0E94CC00A0E0B0E0E2EEF1E099
:1003C0000C94C504AE014B5F5F4FFA0161917191CE
:1003D000AF0180916E0190916F010E942502E2E0D1
:1003E0000C94E10460916E0170916F010E942704EA
:1003F00008950F931F93CF93DF93E0916E01F091D7
:100400006F01238100E010E021FD0EC00FEF1FEF10
:10041000C801DF91CF911F910F9108950995892B04
:1004200011F00FEF1FEFCE01EC01899160916E0189
:1004300070916F01DB011896ED91FC918111EECF67
:100440008AE00995892B21F3E1CFABE0B0E0EBE244
:10045000F2E00C94B6046C017B018A01FC01178266
:100460001682838181FFDAC19AE0492EF601238149
:10047000F70123FD859123FF81917F01811509F407
:100480001FC1853239F423FD959123FF91917F019E
:10049000953229F4B60190E00E942704E7CF30E0BE
:1004A000612C512C712CF0E27F1640F59B32D9F073
:1004B00058F49032D1F09332F1F09E3299F576FCF7
:1004C000FFC0689476F806C09D3291F09033C1F475
:1004D000689470F8F70123FD959123FF91917F01B6
:1004E0009111E1CF29C0689471F8689472F8F2CF45
:1004F000689473F8EFCF689474F8ECCF77FC1CC065
:1005000080ED890F8A30C8F676FE05C0649C800DA8
:100510001124682EDFCF549C800D1124582E68942E
:1005200075F8D8CF9C3619F4689477F8D3CF9C34FB
:1005300009F44BC0983671F2892F8F7D8554833032
:1005400008F445C0933609F466C0933709F469C0CE
:10055000933509F475C0943619F0993609F09FC0A7
:10056000F80177FE95C061917191819191918F0110
:10057000272D2F76722E97FF09C090958095709544
:1005800061957F4F8F4F9F4F689477F82AE030E056
:10059000AE014F5F5F4F5A010E9457048A19A82E7F
:1005A00076FEC5C0872D8E7FA61408F0BFC074FEEE
:1005B00012C172FC06C1F72DFE7E7F2EB62C872D50
:1005C0008678811509F4C0C001C131E083CF3115AF
:1005D000F9F0085F1F4F8FE3898388248394912C5F
:1005E000AE014F5F5F4F5A01E89477F873FC03C088
:1005F00085149104B0F181149104D1F5511409F4DA
:1006000035CFB60180E290E00E9427045A94F6CFDD
:100610000C5F1F4FE0CFF801808189830E5F1F4F71
:10062000DCCFF801A190B1908F01662D70E076FCCF
:1006300002C06FEF7FEFC5010E941C044C01D4CFB4
:10064000F801A190B1908F01662D70E076FC02C098
:100650006FEF7FEFC5010E9411044C01689477F899
:10066000C5CFB60180E290E00E9427045A94C0CF23
:10067000F50177FC859177FE81915F01B60190E0ED
:100680000E94270451105A94F1E08F1A9108B3CFB9
:1006900061917191072E000C880B990B68CF372C54
:1006A000E89434F82AE030E0953739F1572D597F36
:1006B000352E903799F058F49835A9F09F36D9F037
:1006C000F601868197812B96E1E10C94D20498374C
:1006D000B9F774FC05C020E130E00FC0689434F82D
:1006E000689432F8F8CF74FE03C0872D8660382EE8
:1006F00020E132E002C028E030E0F80137FE11C00E
:1007000061917191819191918F01FE0131965F010B
:10071000AF010E9457048A19A82E732CE89477F829
:100720003FCF6191719180E090E0EECF782EBA2CAE
:1007300074FE45CFFE01EA0DF11D8081803309F082
:1007400043C0272D297E722E73FC0EC070FE4FC051
:100750006A2CB51418F4650C6B18B52C852D8B1903
:100760005B1408F480E0B80EB51408F042C05B18C2
:1007700074FE41C0B60180E390E00E94270472FE3F
:1007800009C088E590E071FC02C088E790E0B601FE
:100790000E942704A614D8F1AA94B12C4FEFA41AF2
:1007A000B40ACE0101963C01A80EB91EF501829152
:1007B0005F01B60190E00E9427046A147B04B1F740
:1007C0001DCFB62C782EB6CF72FC02C0B394BCCF2E
:1007D000B394B394B9CFB62C782EF1CEB60180E2A3
:1007E00090E00E94270433943514C0F3B7CF3B2C1C
:1007F000FBCF512CBDCF872D8678811559F280E231
:1008000071FC8BE277FC8DE2B60190E0C1CFB601BE
:1008100080E390E00E9427046A94BCCF8FEF9FEFA3
:1008200052CFFC010590615070400110D8F78095BF
:1008300090958E0F9F1F0895FC01615070400190AC
:100840000110D8F7809590958E0F9F1F08950F93F4
:100850001F93CF93DF93182F092FEB018B8181FD1D
:1008600009C01FEF0FEF812F902FDF91CF911F91C4
:100870000F91089582FF14C02E813F818C819D814C
:10088000281739073CF4E881F981CF010196998353
:10089000888310838E819F8101969F838E83E3CF0F
:1008A000E885F985812F0995892BA1F3DACFFA0123
:1008B000AA27283051F1203181F1E8946F936E7F9F
:1008C0006E5F7F4F8F4F9F4FAF4FB1E03ED0B4E090
:1008D0003CD0670F781F891F9A1FA11D680F791FD1
:1008E0008A1F911DA11D6A0F711D811D911DA11DE2
:1008F00020D009F468943F912AE0269F11243019F2
:10090000305D3193DEF6CF010895462F4770405D8C
:100910004193B3E00FD0C9F7F6CF462F4F70405D3B
:100920004A3318F0495D31FD4052419302D0A9F796
:10093000EACFB4E0A6959795879577956795BA9590
:10094000C9F700976105710508959B01AC010A2E56
:1009500006945795479537952795BA95C9F7620F2D
:10096000731F841F951FA01D08952F923F924F92D1
:100970005F926F927F928F929F92AF92BF92CF922F
:10098000DF92EF92FF920F931F93CF93DF93CDB738
:10099000DEB7CA1BDB0B0FB6F894DEBF0FBECDBFB0
:1009A00009942A88398848885F846E847D848C8481
:1009B0009B84AA84B984C884DF80EE80FD800C818A
:1009C0001B81AA81B981CE0FD11D0FB6F894DEBF6D
:0C09D0000FBECDBFED010895F894FFCFDD
:1009DC00010208040A0404030001020406030004D3
:1009EC0000020704050304040302020207030604C1
:1009FC000D040203000301010103010403030904B4
:100A0C000B040C04000044454255473A2025692C40
:100A1C002025690A00526561647920666F72207422
:0E0A2C0072616E736C6174696E67210D00005B
:00000001FF
