:100000000C9434000C9446000C9446000C9446006A
:100010000C9446000C9446000C9446000C94460048
:100020000C9446000C9446000C9446000C94460038
:100030000C9446000C9446000C9446000C94460028
:100040000C9446000C9446000C9446000C94460018
:100050000C9446000C9446000C9446000C94460008
:100060000C9446000C94460011241FBECFEFD8E03C
:10007000DEBFCDBF21E0A0E0B1E001C01D92A636F9
:10008000B207E1F70E9465000C948F000C94000009
:100090009091010181E0890F843614F08DE9890F78
:1000A000809301010895E09101010E2E000CFF0BD9
:1000B000EE5FFE4F80810895E09101010E2E000C4D
:1000C000FF0BEE5FFE4F808308952C9A259A1BC08C
:1000D0002D9A90910101E92F092E000CFF0B22E0CF
:1000E0001C9921E081E0890F843614F08DE9890F95
:1000F000EE5FFE4F2083809301018FE39CE901971F
:10010000F1F700C00000E09101010E2E000CFF0B82
:10011000EE5FFE4F80818130D9F62D98DACFF894CA
:02012000FFCF0F
:00000001FF
