:100000000C943A000C9457000C9457000C94570031
:100010000C9457000C9457000C9457000C94570004
:100020000C9457000C9457000C9457000C945700F4
:100030000C9457000C9457000C9457000C945700E4
:100040000C9457000C9457000C9457000C945700D4
:100050000C9457000C9457000C9457000C945700C4
:100060000C9457000C9457006364696E6F7073753D
:1000700078585B0011241FBECFEFD8E0DEBFCDBFA4
:1000800011E0A0E0B1E0E6E3FEE002C005900D92D1
:10009000A232B107D9F721E0A2E2B1E001C01D927E
:1000A000A633B207E1F70E9479000C9419070C946B
:1000B00000009091C00095FFFCCF8093C60080E0C7
:1000C00090E008958091C00087FFFCCF8091C6002A
:1000D00090E0089587E690E09093C5008093C40077
:1000E0001092C00088E18093C10086E08093C20036
:1000F000089500D0CDB7DEB787E690E09093C500B5
:100100008093C4001092C00088E18093C10086E013
:100110008093C20082E291E029E530E030932B0128
:1001200020932A0122E630E030932D0120932C0108
:1001300023E02093250110922F0110922E0190931D
:100140003501809334019093330180933201909371
:1001500031018093300180E091E00E94E700CE0100
:1001600001965C01CC24C394D12C9EE0E92E91E051
:10017000F92E01E111E0DA82C982BF92AF92FF92BB
:10018000EF920E9413018A818F9389818F931F932D
:100190000F930E94D1000FB6F894DEBF0FBECDBF03
:1001A000EACFA0E0B0E0E7EDF0E00C94F206AE019B
:1001B0004B5F5F4FFA0161917191AF018091320104
:1001C000909133010E942901E2E00C940E070F93F5
:1001D0001F93CF93DF93E0913201F091330123819C
:1001E00000E010E021FD0EC00FEF1FEFC801DF910E
:1001F000CF911F910F9108950995892B11F00FEF61
:100200001FEFCE01EC0189916091320170913301B1
:10021000DB011896ED91FC918111EECF8AE00995F2
:10022000892B21F3E1CFA0E0B0E0E9E1F1E00C940B
:10023000F206AE014B5F5F4FFA0161917191AF0120
:1002400080913001909131010E949C04E2E00C9475
:100250000E07ABE0B0E0EFE2F1E00C94E3066C01D6
:100260007B018A01FC0117821682838181FFDAC13A
:100270009AE0492EF6012381F70123FD859123FFA2
:1002800081917F01811509F41FC1853239F423FD65
:10029000959123FF91917F01953229F4B60190E069
:1002A0000E943806E7CF30E0612C512C712CF0E22F
:1002B0007F1640F59B32D9F058F49032D1F093324A
:1002C000F1F09E3299F576FCFFC0689476F806C08E
:1002D0009D3291F09033C1F4689470F8F70123FDDA
:1002E000959123FF91917F019111E1CF29C06894ED
:1002F00071F8689472F8F2CF689473F8EFCF68944D
:1003000074F8ECCF77FC1CC080ED890F8A30C8F6FA
:1003100076FE05C0649C800D1124682EDFCF549CAE
:10032000800D1124582E689475F8D8CF9C3619F496
:10033000689477F8D3CF9C3409F44BC0983671F2A7
:10034000892F8F7D8554833008F445C0933609F496
:1003500066C0933709F469C0933509F475C09436C3
:1003600019F0993609F09FC0F80177FE95C06191A8
:100370007191819191918F01272D2F76722E97FF88
:1003800009C090958095709561957F4F8F4F9F4FD5
:10039000689477F82AE030E0AE014F5F5F4F5A0172
:1003A0000E9481068A19A82E76FEC5C0872D8E7FF1
:1003B000A61408F0BFC074FE12C172FC06C1F72D6E
:1003C000FE7E7F2EB62C872D8678811509F4C0C05D
:1003D00001C131E083CF3115F9F0085F1F4F8FE382
:1003E000898388248394912CAE014F5F5F4F5A011B
:1003F000E89477F873FC03C085149104B0F181147C
:100400009104D1F5511409F435CFB60180E290E0A2
:100410000E9438065A94F6CF0C5F1F4FE0CFF801C8
:10042000808189830E5F1F4FDCCFF801A190B190CE
:100430008F01662D70E076FC02C06FEF7FEFC50183
:100440000E94EA054C01D4CFF801A190B1908F0130
:10045000662D70E076FC02C06FEF7FEFC5010E9451
:10046000DF054C01689477F8C5CFB60180E290E0D3
:100470000E9438065A94C0CFF50177FC859177FE2B
:1004800081915F01B60190E00E94380651105A94A4
:10049000F1E08F1A9108B3CF61917191072E000C92
:1004A000880B990B68CF372CE89434F82AE030E0B9
:1004B000953739F1572D597F352E903799F058F4EB
:1004C0009835A9F09F36D9F0F601868197812B9651
:1004D000E1E10C94FF069837B9F774FC05C020E100
:1004E00030E00FC0689434F8689432F8F8CF74FEA6
:1004F00003C0872D8660382E20E132E002C028E05C
:1005000030E0F80137FE11C06191719181919191B4
:100510008F01FE0131965F01AF010E9481068A19A9
:10052000A82E732CE89477F83FCF6191719180E009
:1005300090E0EECF782EBA2C74FE45CFFE01EA0D86
:10054000F11D8081803309F043C0272D297E722E52
:1005500073FC0EC070FE4FC06A2CB51418F4650C05
:100560006B18B52C852D8B195B1408F480E0B80E40
:10057000B51408F042C05B1874FE41C0B60180E3B8
:1005800090E00E94380672FE09C088E590E071FC98
:1005900002C088E790E0B6010E943806A614D8F1A0
:1005A000AA94B12C4FEFA41AB40ACE0101963C01D3
:1005B000A80EB91EF50182915F01B60190E00E947C
:1005C00038066A147B04B1F71DCFB62C782EB6CF4F
:1005D00072FC02C0B394BCCFB394B394B9CFB62C21
:1005E000782EF1CEB60180E290E00E943806339476
:1005F0003514C0F3B7CF3B2CFBCF512CBDCF872D8B
:100600008678811559F280E271FC8BE277FC8DE2ED
:10061000B60190E0C1CFB60180E390E00E943806B9
:100620006A94BCCF8FEF9FEF52CFCF92DF92EF92C1
:10063000FF92FC016A017B0120FD08C023FD05C07B
:1006400022FF02C0F382E282D182C082FF90EF904B
:10065000DF90CF900895CF92DF92EF92FF926B01DF
:100660007C0183E044FD10C084E046FD0DC0D6014E
:10067000F701AA0FBB1FEE1FFF1F1094D1F7CA0E80
:10068000DB1EEE1EFF1E81E0CC0CDD1CEE1CFF1CF1
:100690008A95D1F7C701B601620F711D811D911DA9
:1006A000FF90EF90DF90CF9008950F931F93CF931B
:1006B000DF938C01C8010E94F505EC0197FD08C08D
:1006C0000E94CB05892BB1F7B801CE010E946806C4
:1006D000CE01DF91CF911F910F910895A0E0B0E07E
:1006E000E4E7F3E00C94E8065C01162F4A01F22ED1
:1006F0000E94F505EC019927CB3221F08D9781F40A
:100700006894F7F81A9531F480E0CDB7DEB7ECE0E5
:100710000C940407C5010E94F505EC0197FDF4CF88
:100720000F2D0D7F8F2D807381112FC0C03369F580
:10073000EE24EA94E10EE11431F0C5010E94F505C2
:10074000EC0197FF15C0C12CD12C760107FF08C022
:10075000F094E094D094C094C11CD11CE11CF11C15
:10076000202FB701A601C4010E94150381E0CDCF5F
:100770008F7D0F2D883511F50264125021F3C501CC
:100780000E94F505EC0197FDDECFC12CD12C76013E
:100790002C2F20532830D0F004FD09C02A30B0F0AF
:1007A00006FF05C02F7D8FEE820F863070F0B501F9
:1007B000CE010E94680601FFA7CFC8CFF6FE03C096
:1007C00002601E2DE2CF0261FCCF2750402FC701EF
:1007D000B6010E942B036B017C0102601A9509F49B
:1007E000B5CFC5010E94F505EC0197FFD1CFAECF83
:1007F000A0E2B0E0EEEFF3E00C94E4064C01B62E7C
:100800007A01CE0101963C0180E2F30111928A95B2
:10081000E9F7F401B381890180E090E0A0E050E0C5
:1008200070E021E030E0F801B3FD4591B3FF419164
:10083000642F8F01411107C000E010E0C801A096AD
:10084000E0E10C9400074E3511F4009741F1781760
:100850001906FCF44D3551F14D32D9F4511511F111
:10086000E62FE695E695E695E60DF72DF11D462F68
:100870004770290102C0440C551C4A95E2F7A201B9
:100880005081452B40836A1779F06A1730F46F5F07
:10089000E7CF5111E5CFA42FE3CF6150E1CF71E055
:1008A0000196C1CF51E0FCCF50E0FACF511519F0BD
:1008B0008E8180628E83711561F0F3019E012F5D40
:1008C0003F4F8081DF01319680958C93E217F307CB
:1008D000C1F7AA24A394C4010E94F5056C0197FDF9
:1008E00017C0E82FE695E695E695E60DF72DF11D84
:1008F000808190E096012770332702C095958795F7
:100900002A95E2F780FD07C0B401C6010E9468067F
:10091000A11459F091CFE114F10419F0F701C1923B
:100920007F01BA94A12CB110D6CFE114F10409F4DF
:1009300085CFF701108282CFA5E0B0E0E2EAF4E0D3
:100940000C94E2067C016C837D834B83252EFC0195
:1009500017821682312CF7014380EC81FD8143FC24
:10096000659043FE6190FD83EC83611419F1862D3F
:1009700090E00E94CB05892B21F0C7010E9455030E
:10098000EACFF5E26F120BC0EC81FD8143FC75905C
:1009900043FE7190FD83EC8385E278120EC0C7019F
:1009A0000E94F5054C0197FDAAC06816A1F2B70197
:1009B0000E946806832D90E0A6C09AE2612C79120D
:1009C0000AC0EC81FD8143FC759043FE7190FD836C
:1009D000EC8366246394512C20ED270D2A3078F1A6
:1009E00061FE40C0511431F3E8E67E1609F43DC0C3
:1009F000FCE67F1609F446C07114E1F2672D70E041
:100A000088E690E00E94D405892BA1F200E010E076
:100A100060FC08C0AB80B22CF501019111915F011F
:100A2000EB832B2CFEE67F1238C0F70146815781FD
:100A300060E070E0262DC8010E9415038CCF6894F9
:100A400061F8652D70E080E090E040E20E942B03A9
:100A5000562EEC81FD8143FC759043FE7190FD8321
:100A6000EC83BACF55245A94BFCFEC81FD8143FC6F
:100A7000759043FE7190FD83EC8388E67812BCCFBD
:100A8000689463F8689462F8EC81FD8143FC75908A
:100A900043FE7190FD83EC83AFCFF3E67F1219C064
:100AA00061FC02C055245394C7010E94F505898357
:100AB0009A8389819A8197FD22C00115110519F049
:100AC000F80181938F015A9479F760FC44CF3394F5
:100AD00042CF9BE579121BC02C813D81A801652D79
:100AE000C7010E94F8038C839D83EC81FD81EF2B6D
:100AF00061F7F70183818073811509F45BCF8FEF74
:100B00009FEF311057CF2596E2E10C94FE06C70106
:100B10000E94550397FDF3CFFFE67F16C9F180E7EA
:100B2000781648F494E6791661F0E9E67E1659F0F5
:100B3000689466F808C0F3E77F16A9F085E7781295
:100B4000F7CF689465F8262DA801652DC7010E948E
:100B50006E038115CDCF0115110519F0F801C19271
:100B60008F015A9471F0C7010E94F5056C0197FD41
:100B700008C00E94CB05892B71F3B701C6010E9402
:100B800068060115110509F4A0CFF80110829DCF68
:100B9000689464F8D8CF91110C94DF06803219F074
:100BA00089508550C8F70895FC010590061621F07C
:100BB0000020D9F7C00108953197CF010895FC01B5
:100BC0000590615070400110D8F7809590958E0F78
:100BD0009F1F0895FC016150704001900110D8F7EB
:100BE000809590958E0F9F1F08950F931F93CF931D
:100BF000DF93EC018B8180FF1DC086FF0EC08F7BD1
:100C00008B838E819F8101969F838E838A8190E062
:100C1000DF91CF911F910F91089582FF19C0E88154
:100C2000F9819081092F092E000C110B911105C03B
:100C300080628B838FEF9FEFEBCF3196F983E88350
:100C40008E819F8101969F838E83C8019927E0CF73
:100C5000EA85FB85CE0109958C0197FFF1CF8B8149
:100C60000F3F1F4F19F490E1892BE3CF90E2FCCFA7
:100C70000F931F93CF93DF93182F092FEB018B81D5
:100C800081FD09C01FEF0FEF812F902FDF91CF91D2
:100C90001F910F91089582FF14C02E813F818C8196
:100CA0009D81281739073CF4E881F981CF0101962D
:100CB0009983888310838E819F8101969F838E8381
:100CC000E3CFE885F985812F0995892BA1F3DACF48
:100CD0009C01FB01838180FF11C086FD0FC02F3F67
:100CE000320751F022838F7D8064838386819781D0
:100CF0000197978386833327C90108952FEF3FEF2C
:100D0000FBCFFA01AA27283051F1203181F1E89474
:100D10006F936E7F6E5F7F4F8F4F9F4FAF4FB1E0EE
:100D20003ED0B4E03CD0670F781F891F9A1FA11DE9
:100D3000680F791F8A1F911DA11D6A0F711D811DEA
:100D4000911DA11D20D009F468943F912AE0269FAF
:100D500011243019305D3193DEF6CF010895462F0E
:100D60004770405D4193B3E00FD0C9F7F6CF462FEF
:100D70004F70405D4A3318F0495D31FD4052419358
:100D800002D0A9F7EACFB4E0A69597958795779515
:100D90006795BA95C9F700976105710508959B019C
:100DA000AC010A2E06945795479537952795BA9525
:100DB000C9F7620F731F841F951FA01D08959927FF
:100DC000882708952F923F924F925F926F927F9261
:100DD0008F929F92AF92BF92CF92DF92EF92FF924B
:100DE0000F931F93CF93DF93CDB7DEB7CA1BDB0BF7
:100DF0000FB6F894DEBF0FBECDBF09942A8839889C
:100E000048885F846E847D848C849B84AA84B984A2
:100E1000C884DF80EE80FD800C811B81AA81B981AE
:100E2000CE0FD11D0FB6F894DEBF0FBECDBFED01C2
:060E30000895F894FFCFC5
:100E360048656C6C6F20776F726C64210D002564B9
:100E4600004F64637A7974616E6F3A2025640D0AE7
:020E560000009A
:00000001FF
